S01A00006669726D776172652D70726F6A6563742D312E737265632B
S11300000C942A000C9447000C9447000C9447006D
S11300100C9447000C9447000C9447000C94470040
S11300200C9447000C9447000C9447000C94470030
S11300300C9447000C94AB030C94D7030C94470026
S11300400C9447000C9447000C9447000C94470010
S11300500C94470011241FBECFE5D8E0DEBFCDBF0E
S113006010E0A0E6B0E0EEE4F0E102C005900D92ED
S1130070AA3AB107D9F720E0AAEAB0E001C01D927C
S1130080AB3FB207E1F70E94E7040C9425080C94F7
S113009000008FEF97ED0197F1F700C00000109278
S11300A0F40008958091F4000895CF92DF92EF92C6
S11300B0FF92CF93DF9300D000D01F92CDB7DEB76D
S11300C0682F792FFE01319685E0DF011D928A9514
S11300D0E9F71092F40094988C9A8FEF97ED0197BA
S11300E0F1F700C00000949A8C982FE10AC097E0C1
S11300F09A95F1F700C0215021F484E08093F40034
S11301008FC08499F4CF8091F400882359F088C07B
S1130110A7E0AA95F1F700C0215029F484E0809368
S1130120F4000EC023E3849BF3CF0AC0B7E0BA9572
S1130130F1F700C0215029F484E08093F40070C0EA
S113014023E38499F3CF8091F400882309F443C016
S113015067C087E08A95F1F700C0215031F45093CD
S1130160F40045E034C0422F24E2849BF2CF209176
S1130170F400211129C091E89A95F1F70000849BBD
S11301801EC0E1E0F0E0EC0FFD1FE40FF11D208143
S1130190D701C601032E04C0880F991FAA1FBB1FD5
S11301A00A94D2F7822B80830AC0A7E0AA95F1F7BC
S11301B000C0215029F45093F400242F06C023E3F7
S11301C08499F3CF242F01C0242F315062F64F5F5E
S11301D0453038F008C040E0C12CD12C7601C394DE
S11301E054E037E0C1CF8091F400811119C09981A6
S11301F08A81980F8B81980F8C81890F9D81891733
S113020021F083E08093F4000BC0DE011196E62F09
S1130210F72FCE0105962D912193A817B907D9F789
S11302208091F4000F900F900F900F900F90DF913A
S1130230CF91FF90EF90DF90CF900895CF938823D4
S113024031F08091AA0081608093AA0005C080915A
S1130250AA008E7F8093AA008091AA008260809376
S1130260AA006091AA0080E00E94FC0262E080E0A3
S11302700E943D0300C064E080E00E9456038111A7
S113028002C0C0E101C0C0E065E080E00E94560306
S1130290811101C0C06266E080E00E9456038111B2
S11302A001C0C06467E080E00E945603811101C070
S11302B0C06862E080E00E94410300C062E080E028
S11302C00E943D0300C064E080E00E945603811157
S11302D001C0C16065E080E00E945603811101C045
S11302E0C26066E080E00E945603811101C0C460D0
S11302F067E080E00E945603811101C0C86062E09B
S113030080E00E9441038C2FCF91089580E00E94E9
S11303101E018823DCF385E090E00197F1F780E08B
S11303200E941E01089562E080E00E943D0300C027
S113033062E080E00E9441030895CF93C82F6623B2
S113034031F08091AA0081608093AA0005C0809159
S1130350AA008E7F8093AA008091AA008D7F80934B
S1130360AA006091AA0080E00E94FC028091AA0089
S11303708F778093AA008091AA008F7B8093AA0034
S11303808091AA008F7D8093AA008091AA008F7E1D
S11303908093AA00CC232CF48091AA0080688093D7
S11303A0AA00C6FF05C08091AA0080648093AA00B9
S11303B0C5FF05C08091AA0080628093AA00C4FF93
S11303C005C08091AA0080618093AA006091AA0070
S11303D080E00E94FC020E9493018091AA008F7722
S11303E08093AA008091AA008F7B8093AA008091B9
S11303F0AA008F7D8093AA008091AA008F7E8093AB
S1130400AA00C3FF05C08091AA0080688093AA0057
S1130410C2FF05C08091AA0080648093AA00C1FF36
S113042005C08091AA0080628093AA00C0FF05C025
S11304308091AA0080618093AA006091AA0080E064
S11304400E94FC020E9493018091AA008061809323
S1130450AA008091AA0080628093AA008091AA00D9
S113046080648093AA008091AA0080688093AA0087
S11304706091AA0080E00E94FC02CF910895CF937E
S1130480C82F0E94860160E08C2F0E949D01CF91AD
S11304900895611104C080580E943F020895805459
S11304A00E943F02089581E00E943F02089588233C
S11304B031F08091AA00877F8093AA0005C08091C3
S11304C0AA0088608093AA006091AA0080E00E943C
S11304D0FC02089582E00E943F020895CF93C82F42
S11304E00E948601CA3049F4803410F080E001C0D3
S11304F080E480580E943F0213C0803129F460E0F8
S113050080EC0E949D0106C0803521F460E080E803
S11305100E949D010E94860161E08C2F0E949D0132
S1130520CF910895CF93DF93EC012196FC01808154
S1130530882329F00E946E0289918111FBCFDF91FB
S1130540CF9108951F93CF93DF93182F0E94F40245
S11305501092AA006091AA0080E00E94FC0280EC44
S11305609CEA0197F1F78091AA0080628093AA0027
S11305708091AA0080618093AA006091AA0080E023
S11305800E94FC020E94930185EE95E30197F1F726
S11305900E949301C0EBD0E0CE010197F1F70E94D5
S11305A09301CE010197F1F78091AA008F7E809389
S11305B0AA006091AA0080E00E94FC020E949301BC
S11305C02197F1F788E20E943F0288E00E943F02EF
S11305D00E94530286E00E943F02812F0E943F0244
S11305E0DF91CF911F9108950E946F0385E28A9550
S11305F0F1F71092FA000895CF9381110DC0C62F20
S11306006093FA008EE40E9473038C2F0E94970378
S11306100E94910380E001C08FEFCF910895CF93A2
S1130620DF93811124C0683020F58091FA004423BF
S113063049F0C1E0D0E002C0CC0FDD1F6A95E2F7BB
S1130640C82B09C0C1E0D0E002C0CC0FDD1F6A9501
S1130650E2F7C095C823C093FA008EE40E947303A6
S11306608C2F0E9497030E94910380E003C08FEFB8
S113067001C08FEFDF91CF91089541E00E940F03F5
S1130680089540E00E940F030895CF9381110AC09A
S11306908FE40E9473030E94A403C82FC0950E9494
S11306A0910301C0CFEF8C2FCF910895CF93811187
S11306B011C0683088F4C62F0E9445038F3F69F04B
S11306C0082E000C990B02C095958795CA95E2F700
S11306D0817003C08FEF01C08FEFCF91089511B8DF
S11306E08FE280B9089594EA96BF06B607FEFDCF5F
S11306F091B1987F983011F0903179F483B984E8FE
S113070086BF06B607FEFDCF91B1987F983139F0C8
S113071081E0903429F480E0089581E0089580E038
S1130720089584E986BF06B604FCFDCF089583B915
S113073084E886BF06B607FEFDCF91B1987F81E0BD
S1130740983209F480E0089584E886BF06B607FE6F
S1130750FDCF83B108951F920F920FB60F9211240B
S11307602F938F939F93EF93FF938BB12CB18C7145
S1130770E091AD00EF5FEF719091AC00E91739F0B3
S1130780E093AD00F0E0E055FF4F208301C082E02C
S11307909091AB00892B8093AB00FF91EF919F91D7
S11307A08F912F910F900FBE0F901F9018951F924D
S11307B00F920FB60F9211248F939F93EF93FF9391
S11307C09091AF008091AE00981761F0E091AE0077
S11307D0EF5FEF71E093AE00F0E0E053FF4F8081F4
S11307E08CB901C05598FF91EF919F918F910F9013
S11307F00FBE0F901F9018951092AF001092AE008C
S11308001092AD001092AC00992314F422E02BB99D
S1130810907890BD89B988E98AB986E880BD089541
S11308202091AF002F5F2F719091AE002917E1F353
S1130830E22FF0E0E053FF4F80832093AF00559AFE
S11308400895CF93DF93EC018881882331F02196BA
S11308500E94100489918111FBCFDF91CF910895FB
S11308608DE00E94A2020E946A0280E00E94570268
S113087080E690E00E94920261E080E00E944902DA
S11308808BE690E00E9492020895CF93DF93C0EF2D
S1130890D0E088814AE050E065EF70E090E00E948B
S11308A0FB0460E08AE00E94490285EF90E00E9428
S11308B0920280E890E00E94920289814AE050E02E
S11308C065EF70E090E00E94FB0485EF90E00E94E9
S11308D0920282E790E00E9492028A814AE050E00C
S11308E065EF70E090E00E94FB0461E08AE00E9402
S11308F0490285EF90E00E94920280E890E00E9415
S113090092028B814AE050E065EF70E090E00E9433
S1130910FB0485EF90E00E9492028FED0E946E022C
S113092084E790E00E949202DF91CF91089580EFD6
S113093090E00E9455000E945200811102C00E9462
S11309404504089587E490E00E94FC03789486E7C8
S113095090E00E94210408950F931F93CF93DF9397
S1130960CDB7DEB7A0970FB6F894DEBF0FBECDBFEC
S11309701F9280EB8F93E0EFF0E083811F928F93BF
S113098082811F928F9381811F928F9380811F9206
S11309908F9382E890E09F938F938E010F5F1F4F98
S11309A01F930F930E942B05C8010E9421040FB6C8
S11309B0F894DEBF0FBECDBFA0960FB6F894DEBF8D
S11309C00FBECDBFDF91CF911F910F9108950E946B
S11309D049000E9430040E94A2040E9497040E94CD
S11309E0AC042FEF8FE793E4215080409040E1F76F
S11309F000C00000F2CF4532510520F4423010F01F
S1130A000C940605FB011082CB010895BB274A30E4
S1130A1031F4992322F4BDE2909581959F4F0C9473
S1130A201205BB27FB015527AA27880F991FAA1F68
S1130A30A41710F0A41B83955051B9F7A05DAA33F5
S1130A4008F0A95DA193009779F7B111B1931192C0
S1130A50CB010C944407AEE0B0E0E1E3F5E00C9484
S1130A60FC070D891E8986E08C831A8309838FEF26
S1130A709FE79E838D83AE01475E5F4F6F89788DBC
S1130A80CE0101960E944D05EF81F885E00FF11F1C
S1130A9010822E96E4E00C941808ABE0B0E0E3E595
S1130AA0F5E00C94EE076C017B018A01FC011782CE
S1130AB01682838181FFCCC1CE0101963C01F601EF
S1130AC09381F70193FD859193FF81917F018823A1
S1130AD009F4BAC1853239F493FD859193FF81916C
S1130AE07F01853229F4B60190E00E945407E7CFD4
S1130AF0912C212C312CFFE1F315D8F08B3279F0B5
S1130B0038F4803279F08332A1F4232D20611DC0A2
S1130B108D3261F0803369F4232D216016C0832D5A
S1130B208260382EE32DE4603E2E2AC0F32DF86057
S1130B301DC037FC2DC020ED280F2A3040F08E3226
S1130B40B9F436FC81C1232D2064322E19C036FE3F
S1130B5006C08AE0989E200D1124922E11C0EAE06E
S1130B602E9E200D1124222EF32DF0623F2E08C05C
S1130B708C3621F4832D8068382E02C0883641F4E7
S1130B80F70193FD859193FF81917F018111B3CF8B
S1130B90982F9F7D9554933028F40C5F1F4F9FE34B
S1130BA099830DC0833631F0833771F0833509F0B2
S1130BB059C021C0F801808189830E5F1F4F8824AA
S1130BC08394912C530113C02801F2E04F0E511C61
S1130BD0F801A080B18036FE03C0692D70E002C028
S1130BE06FEF7FEFC5010E9439074C018201F32D9D
S1130BF0FF773F2E16C0280122E0420E511CF80157
S1130C00A080B18036FE03C0692D70E002C06FEF92
S1130C107FEFC5010E942E074C01F32DF0683F2E93
S1130C20820133FC1BC0822D90E088169906B0F433
S1130C30B60180E290E00E9454072A94F4CFF501B3
S1130C4037FC859137FE81915F01B60190E00E94E7
S1130C50540721102A9421E0821A910881149104E6
S1130C6071F7E8C0843611F0893641F5F80137FE92
S1130C7007C060817181828193810C5F1F4F08C01E
S1130C8060817181072E000C880B990B0E5F1F4F3A
S1130C90F32DFF763F2E97FF09C0909580957095B0
S1130CA061957F4F8F4F9F4FF0683F2E2AE030E0D1
S1130CB0A3010E949007882E861845C0853731F419
S1130CC0232D2F7EB22E2AE030E025C0932D997F6C
S1130CD0B92E8F36C1F018F4883579F0B5C0803755
S1130CE019F0883721F0B0C0E92FE061BE2EB4FEC0
S1130CF00DC0FB2DF460BF2E09C034FE0AC0292F9D
S1130D002660B22E06C028E030E005C020E130E0C5
S1130D1002C020E132E0F801B7FE07C060817181B2
S1130D20828193810C5F1F4F06C06081718180E0D6
S1130D3090E00E5F1F4FA3010E949007882E861833
S1130D40FB2DFF773F2E36FE0DC0232D2E7FA22EC6
S1130D50891458F434FE0BC032FC09C0832D8E7EF6
S1130D60A82E05C0B82CA32C03C0B82C01C0B92CE4
S1130D70A4FE0FC0FE01E80DF11D8081803321F433
S1130D809A2D997EA92E09C0A2FE06C0B394B394ED
S1130D9004C08A2D867809F0B394A3FC11C0A0FE88
S1130DA006C0B21488F4280C922C9B180EC0B214FE
S1130DB060F4B60180E290E00E945407B394F7CF48
S1130DC0B21418F42B1802C0982C212CA4FE10C0C5
S1130DD0B60180E390E00E945407A2FE17C0A1FC74
S1130DE003C088E790E002C088E590E0B6010CC03B
S1130DF08A2D867859F0A1FE02C08BE201C080E200
S1130E00A7FC8DE2B60190E00E945407891438F4DF
S1130E10B60180E390E00E9454079A94F7CF8A9435
S1130E20F301E80DF11D8081B60190E00E945407A2
S1130E308110F5CF222009F442CEB60180E290E081
S1130E400E9454072A94F6CFF6018681978102C046
S1130E508FEF9FEF2B96E2E10C940A08FC010590BA
S1130E60615070400110D8F7809590958E0F9F1FA8
S1130E700895FC016150704001900110D8F78095ED
S1130E8090958E0F9F1F0895DC01FC01672F7191CF
S1130E907723E1F7329704C07C916D93708362915C
S1130EA0AE17BF07C8F308950F931F93CF93DF9333
S1130EB0FB01238121FD03C08FEF9FEF2CC022FF94
S1130EC016C046815781248135814217530744F463
S1130ED0A081B1819D012F5F3F4F318320838C938B
S1130EE0268137812F5F3F4F3783268314C08B01C0
S1130EF0EC01FB010084F185E02D0995892BE1F6D5
S1130F00D80116968D919C911797019617969C93EC
S1130F108E931697CE01DF91CF911F910F91089573
S1130F20FA01AA27283051F1203181F1E8946F9316
S1130F306E7F6E5F7F4F8F4F9F4FAF4FB1E03ED0BC
S1130F40B4E03CD0670F781F891F9A1FA11D680F5A
S1130F50791F8A1F911DA11D6A0F711D811D911D8D
S1130F60A11D20D009F468943F912AE0269F112402
S1130F703019305D3193DEF6CF010895462F477066
S1130F80405D4193B3E00FD0C9F7F6CF462F4F70C1
S1130F90405D4A3318F0495D31FD4052419302D01F
S1130FA0A9F7EACFB4E0A6959795879577956795C5
S1130FB0BA95C9F700976105710508959B01AC01C5
S1130FC00A2E06945795479537952795BA95C9F7EC
S1130FD0620F731F841F951FA01D08952F923F92C7
S1130FE04F925F926F927F928F929F92AF92BF9235
S1130FF0CF92DF92EF92FF920F931F93CF93DF93E1
S1131000CDB7DEB7CA1BDB0B0FB6F894DEBF0FBE3D
S1131010CDBF09942A88398848885F846E847D848A
S11310208C849B84AA84B984C884DF80EE80FD808C
S11310300C811B81AA81B981CE0FD11D0FB6F89402
S1111040DEBF0FBECDBFED010895F894FFCFC3
S113104E48756D69646974793A200054656D703A17
S113105E2000250043005374617274696E672E2E4E
S113106E2E0048756D69646974793A202532642EB0
S113107E2531642525202054656D703A202532646F
S10D108E2E2531642563430A000097
S9030000FC
